{
  "_format": "hh-sol-artifact-1",
  "contractName": "AuditCertificate",
  "sourceName": "contracts/AuditCertificate.sol",
  "abi": [
    {
      "inputs": [
        {
          "internalType": "address",
          "name": "_somniaWatch",
          "type": "address"
        }
      ],
      "stateMutability": "nonpayable",
      "type": "constructor"
    },
    {
      "anonymous": false,
      "inputs": [
        {
          "indexed": true,
          "internalType": "uint256",
          "name": "tokenId",
          "type": "uint256"
        },
        {
          "indexed": true,
          "internalType": "address",
          "name": "contractAddr",
          "type": "address"
        },
        {
          "indexed": false,
          "internalType": "enum AuditCertificate.CertLevel",
          "name": "level",
          "type": "uint8"
        },
        {
          "indexed": false,
          "internalType": "uint256",
          "name": "receipt",
          "type": "uint256"
        }
      ],
      "name": "CertificateMinted",
      "type": "event"
    },
    {
      "anonymous": false,
      "inputs": [
        {
          "indexed": true,
          "internalType": "uint256",
          "name": "tokenId",
          "type": "uint256"
        },
        {
          "indexed": true,
          "internalType": "address",
          "name": "contractAddr",
          "type": "address"
        },
        {
          "indexed": false,
          "internalType": "uint256",
          "name": "receipt",
          "type": "uint256"
        }
      ],
      "name": "CertificateRevoked",
      "type": "event"
    },
    {
      "anonymous": false,
      "inputs": [
        {
          "indexed": true,
          "internalType": "uint256",
          "name": "tokenId",
          "type": "uint256"
        },
        {
          "indexed": false,
          "internalType": "enum AuditCertificate.CertLevel",
          "name": "newLevel",
          "type": "uint8"
        }
      ],
      "name": "CertificateUpgraded",
      "type": "event"
    },
    {
      "inputs": [],
      "name": "BRONZE_THRESHOLD",
      "outputs": [
        {
          "internalType": "uint256",
          "name": "",
          "type": "uint256"
        }
      ],
      "stateMutability": "view",
      "type": "function"
    },
    {
      "inputs": [],
      "name": "GOLD_THRESHOLD",
      "outputs": [
        {
          "internalType": "uint256",
          "name": "",
          "type": "uint256"
        }
      ],
      "stateMutability": "view",
      "type": "function"
    },
    {
      "inputs": [],
      "name": "SILVER_THRESHOLD",
      "outputs": [
        {
          "internalType": "uint256",
          "name": "",
          "type": "uint256"
        }
      ],
      "stateMutability": "view",
      "type": "function"
    },
    {
      "inputs": [],
      "name": "admin",
      "outputs": [
        {
          "internalType": "address",
          "name": "",
          "type": "address"
        }
      ],
      "stateMutability": "view",
      "type": "function"
    },
    {
      "inputs": [
        {
          "internalType": "uint256",
          "name": "",
          "type": "uint256"
        }
      ],
      "name": "certificates",
      "outputs": [
        {
          "internalType": "address",
          "name": "contractAddress",
          "type": "address"
        },
        {
          "internalType": "address",
          "name": "owner",
          "type": "address"
        },
        {
          "internalType": "enum AuditCertificate.CertLevel",
          "name": "level",
          "type": "uint8"
        },
        {
          "internalType": "uint256",
          "name": "consecutiveSafe",
          "type": "uint256"
        },
        {
          "internalType": "uint256",
          "name": "issuedAt",
          "type": "uint256"
        },
        {
          "internalType": "uint256",
          "name": "lastAuditReceipt",
          "type": "uint256"
        },
        {
          "internalType": "bool",
          "name": "isRevoked",
          "type": "bool"
        }
      ],
      "stateMutability": "view",
      "type": "function"
    },
    {
      "inputs": [
        {
          "internalType": "address",
          "name": "",
          "type": "address"
        }
      ],
      "name": "contractToToken",
      "outputs": [
        {
          "internalType": "uint256",
          "name": "",
          "type": "uint256"
        }
      ],
      "stateMutability": "view",
      "type": "function"
    },
    {
      "inputs": [
        {
          "internalType": "address",
          "name": "contractAddr",
          "type": "address"
        }
      ],
      "name": "getCertificate",
      "outputs": [
        {
          "components": [
            {
              "internalType": "address",
              "name": "contractAddress",
              "type": "address"
            },
            {
              "internalType": "address",
              "name": "owner",
              "type": "address"
            },
            {
              "internalType": "enum AuditCertificate.CertLevel",
              "name": "level",
              "type": "uint8"
            },
            {
              "internalType": "uint256",
              "name": "consecutiveSafe",
              "type": "uint256"
            },
            {
              "internalType": "uint256",
              "name": "issuedAt",
              "type": "uint256"
            },
            {
              "internalType": "uint256",
              "name": "lastAuditReceipt",
              "type": "uint256"
            },
            {
              "internalType": "bool",
              "name": "isRevoked",
              "type": "bool"
            }
          ],
          "internalType": "struct AuditCertificate.Certificate",
          "name": "",
          "type": "tuple"
        }
      ],
      "stateMutability": "view",
      "type": "function"
    },
    {
      "inputs": [
        {
          "internalType": "address",
          "name": "owner",
          "type": "address"
        }
      ],
      "name": "getOwnerCertificates",
      "outputs": [
        {
          "internalType": "uint256[]",
          "name": "",
          "type": "uint256[]"
        }
      ],
      "stateMutability": "view",
      "type": "function"
    },
    {
      "inputs": [
        {
          "internalType": "address",
          "name": "contractAddr",
          "type": "address"
        }
      ],
      "name": "hasCertificate",
      "outputs": [
        {
          "internalType": "bool",
          "name": "",
          "type": "bool"
        }
      ],
      "stateMutability": "view",
      "type": "function"
    },
    {
      "inputs": [
        {
          "internalType": "address",
          "name": "contractAddr",
          "type": "address"
        },
        {
          "internalType": "address",
          "name": "owner",
          "type": "address"
        },
        {
          "internalType": "uint256",
          "name": "consecutiveSafe",
          "type": "uint256"
        },
        {
          "internalType": "uint256",
          "name": "agentReceipt",
          "type": "uint256"
        }
      ],
      "name": "mintCertificate",
      "outputs": [
        {
          "internalType": "uint256",
          "name": "tokenId",
          "type": "uint256"
        }
      ],
      "stateMutability": "nonpayable",
      "type": "function"
    },
    {
      "inputs": [],
      "name": "nextTokenId",
      "outputs": [
        {
          "internalType": "uint256",
          "name": "",
          "type": "uint256"
        }
      ],
      "stateMutability": "view",
      "type": "function"
    },
    {
      "inputs": [
        {
          "internalType": "address",
          "name": "",
          "type": "address"
        },
        {
          "internalType": "uint256",
          "name": "",
          "type": "uint256"
        }
      ],
      "name": "ownerTokens",
      "outputs": [
        {
          "internalType": "uint256",
          "name": "",
          "type": "uint256"
        }
      ],
      "stateMutability": "view",
      "type": "function"
    },
    {
      "inputs": [
        {
          "internalType": "address",
          "name": "contractAddr",
          "type": "address"
        },
        {
          "internalType": "uint256",
          "name": "agentReceipt",
          "type": "uint256"
        }
      ],
      "name": "revokeCertificate",
      "outputs": [],
      "stateMutability": "nonpayable",
      "type": "function"
    },
    {
      "inputs": [],
      "name": "somniaWatch",
      "outputs": [
        {
          "internalType": "address",
          "name": "",
          "type": "address"
        }
      ],
      "stateMutability": "view",
      "type": "function"
    },
    {
      "inputs": [
        {
          "internalType": "uint256",
          "name": "",
          "type": "uint256"
        }
      ],
      "name": "tokenOwner",
      "outputs": [
        {
          "internalType": "address",
          "name": "",
          "type": "address"
        }
      ],
      "stateMutability": "view",
      "type": "function"
    },
    {
      "inputs": [
        {
          "internalType": "uint256",
          "name": "tokenId",
          "type": "uint256"
        }
      ],
      "name": "tokenURI",
      "outputs": [
        {
          "internalType": "string",
          "name": "",
          "type": "string"
        }
      ],
      "stateMutability": "view",
      "type": "function"
    },
    {
      "inputs": [],
      "name": "totalSupply",
      "outputs": [
        {
          "internalType": "uint256",
          "name": "",
          "type": "uint256"
        }
      ],
      "stateMutability": "view",
      "type": "function"
    },
    {
      "inputs": [
        {
          "internalType": "address",
          "name": "newWatch",
          "type": "address"
        }
      ],
      "name": "updateSomniaWatch",
      "outputs": [],
      "stateMutability": "nonpayable",
      "type": "function"
    },
    {
      "inputs": [
        {
          "internalType": "address",
          "name": "contractAddr",
          "type": "address"
        },
        {
          "internalType": "uint256",
          "name": "newConsecutiveSafe",
          "type": "uint256"
        },
        {
          "internalType": "uint256",
          "name": "agentReceipt",
          "type": "uint256"
        }
      ],
      "name": "upgradeCertificate",
      "outputs": [],
      "stateMutability": "nonpayable",
      "type": "function"
    }
  ],
  "bytecode": "0x60803461008157601f61224338819003918201601f19168301916001600160401b038311848410176100865780849260209460405283398101031261008157516001600160a01b0381169081900361008157600160005560018060a01b031990816005541617600555339060065416176006556040516121a6908161009d8239f35b600080fd5b634e487b7160e01b600052604160045260246000fdfe6080604052600436101561001257600080fd5b60003560e01c80630c02199b1461014757806318160ddd146101425780631caaa4871461013d57806328b600311461013857806328f3c84b14610133578063569739741461012e578063663b3e221461012957806369a2f0261461012457806375794a3c1461011f578063788d58b11461011a57806379b08c5b146101155780637f2635e014610110578063841bf29b1461010b578063c1a0db3014610106578063c87b56dd14610101578063dc47223a146100fc578063ee5354a5146100f7578063f851a440146100f25763fd531e93146100ed57600080fd5b61148d565b611408565b6113e1565b6113b8565b61089e565b610833565b6107f9565b61062c565b6105a4565b6104eb565b6104cd565b6104b1565b61042c565b6103e3565b6102cf565b610277565b610210565b6101e0565b61017d565b600435906001600160a01b038216820361016257565b600080fd5b602435906001600160a01b038216820361016257565b34610162576020366003190112610162576001600160a01b0361019e61014c565b166000526002602052604060002054801515806101c3575b6020906040519015158152f35b506000526001602052602060ff60056040600020015416156101b6565b3461016257600036600319011261016257600054600019810190811161020b57602090604051908152f35b611637565b34610162576020366003190112610162576004356000526003602052602060018060a01b0360406000205416604051908152f35b634e487b7160e01b600052603260045260246000fd5b80548210156102725760005260206000200190600090565b610244565b346101625760403660031901126101625761029061014c565b6001600160a01b0316600090815260046020526040902080546024359190821015610162576020916102c19161025a565b90546040519160031b1c8152f35b34610162576060366003190112610162576102e861014c565b6005546024359161032191610307906001600160a01b0316331461180e565b6001600160a01b0316600090815260026020526040902090565b549061032e82151561185a565b610342826000526001602052604060002090565b61035f61035a610356600584015460ff1690565b1590565b61189e565b61036882611b77565b600182019161037c835460ff9060a01c1690565b610385816103ff565b61038e836103ff565b821161039657005b7fc316b987905ef6b8b7c3a50189d31a2a1c8966052021f67f028e43dd9969b099936103c5836103de95611708565b60028201556004604435910155604051918291826118e3565b0390a2005b34610162576000366003190112610162576020604051600f8152f35b6003111561040957565b634e487b7160e01b600052602160045260246000fd5b9060038210156104095752565b3461016257602036600319011261016257600435600052600160205260e0604060002060018060a01b0380825416916001810154600282015461049960038401549260ff6005600487015496015416956040519788528116602088015260ff604088019160a01c1661041f565b6060850152608084015260a0830152151560c0820152f35b3461016257600036600319011261016257602060405160038152f35b34610162576000366003190112610162576020600054604051908152f35b346101625760203660031901126101625761050461014c565b6006546001600160a01b0391908216330361053757166bffffffffffffffffffffffff60a01b6005541617600555600080f35b60405162461bcd60e51b815260206004820152600a60248201526941646d696e206f6e6c7960b01b6044820152606490fd5b6020908160408183019282815285518094520193019160005b828110610590575050505090565b835185529381019392810192600101610582565b3461016257602080600319360112610162576001600160a01b036105c661014c565b1660005260048152604060002090604051908181845491828152019360005281600020916000905b8282106106155761061185610605818903826116cb565b60405191829182610569565b0390f35b8354865294850194600193840193909101906105ee565b346101625760803660031901126101625761061161064861014c565b610650610167565b9061075d7f01bce952271265663970cca21f784085478cc53d12a306a2e2922c2c4cfda10460443592606435906106a76106a061069460055460018060a01b031690565b6001600160a01b031690565b331461155d565b6106b460038610156115a9565b6001600160a01b03811660009081526002602052604090206106d79054156115eb565b6107ce6106e386611b77565b956107c960005498899788936106f88561164d565b6000556107036116ed565b6001600160a01b0388168152906001600160a01b038416602083015261072c8c604084016116fc565b60608201524260808201528760a0820152600060c0820152610758856000526001602052604060002090565b61172c565b61079481610775856000526003602052604060002090565b80546001600160a01b0319166001600160a01b03909216919091179055565b6001600160a01b03851660009081526002602052604090208390556001600160a01b0316600090815260046020526040902090565b6117bb565b6107e660405192839260018060a01b031696836117f5565b0390a36040519081529081906020820190565b34610162576020366003190112610162576001600160a01b0361081a61014c565b1660005260026020526020604060002054604051908152f35b3461016257600036600319011261016257602060405160078152f35b60005b8381106108625750506000910152565b8181015183820152602001610852565b60409160208252610892815180928160208601526020868601910161084f565b601f01601f1916010190565b34610162576020366003190112610162576004356000818152600360205260409020546108d5906001600160a01b031615156119ea565b6108f16108ec826000526001602052604060002090565b611a2d565b6040810161091b61090b8251610906816103ff565b611b98565b9151610916816103ff565b611c1f565b9060c083019261092b8451151590565b156113a75761094361093b611af7565b945b51151590565b1561139957610950611b3d565b935b81516001600160a01b031661096690611dd9565b936060830195865161097790611f7b565b604051968793602085016109d590603e907f3c73766720786d6c6e733d22687474703a2f2f7777772e77332e6f72672f323081527f30302f737667222076696577426f783d223020302034303020323230223e000060208201520190565b7f3c726563742077696474683d2234303022206865696768743d2232323022206681527f696c6c3d2223303830383130222072783d223136222f3e00000000000000000060208201526037017f3c7265637420783d22312220793d2231222077696474683d223339382220686581527f696768743d22323138222066696c6c3d226e6f6e6522207374726f6b653d22006020820152603f01610a779082611b60565b7f22207374726f6b652d77696474683d2232222072783d22313522206f706163698152693a3c9e9118171b11179f60b11b6020820152602a017f3c636972636c652063783d22323030222063793d2234352220723d22323522208152653334b6361e9160d11b6020820152602601610aef9082611b60565b71111037b830b1b4ba3c9e911817189a91179f60711b81526012017f3c7465787420783d223230302220793d2235322220746578742d616e63686f7281527f3d226d6964646c652220666f6e742d73697a653d223234223e5b536869656c646020820152672e9e17ba32bc3a1f60c11b60408201526048017f3c7465787420783d223230302220793d2239302220746578742d616e63686f7281527f3d226d6964646c652220666f6e742d66616d696c793d226d6f6e6f737061636560208201527f2220666f6e742d73697a653d2231342220666f6e742d7765696768743d22626f604082015269363211103334b6361e9160b11b6060820152606a01610bf591611b60565b61111f60f11b8152600201610c0a9088611b60565b7f2053454355524954592043455254494649434154453c2f746578743e000000008152601c017f3c7465787420783d223230302220793d223131322220746578742d616e63686f815260008051602061215183398151915260208201527f652220666f6e742d73697a653d2239222066696c6c3d2223364236423930223e6040820152606001610c9991611b60565b661e17ba32bc3a1f60c91b81526007017f3c7465787420783d223230302220793d223133322220746578742d616e63686f815260008051602061215183398151915260208201527f652220666f6e742d73697a653d223130222066696c6c3d2223453845384630226040820152601f60f91b6060820152606101610d1c91611b60565b7f20636f6e73656375746976652053414645206175646974733c2f746578743e008152601f017f3c7465787420783d223230302220793d223135302220746578742d616e63686f815260008051602061215183398151915260208201527f652220666f6e742d73697a653d2239222066696c6c3d2223364236423930223e60408201526060017f566572696669656420627920536f6d6e6961204c4c4d204167656e742023313281527f3834373239333834373536313032393338343c2f746578743e0000000000000060208201526039017f3c7265637420783d223134302220793d22313632222077696474683d2231323081527f22206865696768743d223232222072783d2236222066696c6c3d2200000000006020820152603b01610e449082611b60565b71111037b830b1b4ba3c9e911817189a91179f60711b81526012017f3c7465787420783d223230302220793d223137372220746578742d616e63686f815260008051602061215183398151915260208201527f652220666f6e742d73697a653d2231312220666f6e742d7765696768743d226260408201526a37b63211103334b6361e9160a91b6060820152606b01610edc91611b60565b61111f60f11b8152600201610ef19083611b60565b661e17ba32bc3a1f60c91b81526007017f3c7465787420783d223230302220793d223230382220746578742d616e63686f815260008051602061215183398151915260208201527f652220666f6e742d73697a653d2238222066696c6c3d2223334133413541223e60408201526060017f536f6d6e69615761746368204167656e746174686f6e2032303236202d20436f81527f6e73656e7375732d56616c6964617465642041492053656375726974793c2f7460208201526332bc3a1f60e11b6040820152604401651e17b9bb339f60d11b81526006010395601f19968781018652610fde90866116cb565b610fe790611f7b565b93610ff190612071565b9451610ffc90611f7b565b9060a083015161100b90611f7b565b92516001600160a01b031661101f90611edc565b6040517403d913730b6b2911d1129b7b6b734b0abb0ba31b41605d1b60208201529687969195916110536035890184611b60565b6d204365727469666963617465202360901b8152600e0161107391611b60565b61088b60f21b81526002017f226465736372697074696f6e223a2241492d766572696669656420736d61727481527f20636f6e74726163742073656375726974792063657274696669636174652e2060208201527f49737375656420627920536f6d6e69615761746368206175746f6e6f6d6f757360408201527f20677561726469616e206f6e20536f6d6e6961204167656e746963204c312e2060608201527f457665727920617564697420697320636f6e73656e7375732d76616c6964617460808201527f6564206279203320696e646570656e64656e7420536f6d6e69612076616c696460a082015267185d1bdc9ccb888b60c21b60c082015260c8017f22696d616765223a22646174613a696d6167652f7376672b786d6c3b626173658152620d8d0b60ea1b60208201526023016111ae91611b60565b61088b60f21b81526002016d2261747472696275746573223a5b60901b8152600e017f7b2274726169745f74797065223a224c6576656c222c2276616c7565223a22008152601f016111ff91611b60565b62089f4b60ea1b81526003017f7b2274726169745f74797065223a22537461747573222c2276616c7565223a22815260200161123a91611b60565b62089f4b60ea1b81526003017f7b2274726169745f74797065223a225361666520417564697473222c2276616c8152633ab2911d60e11b602082015260240161128291611b60565b611f4b60f21b81526002017f7b2274726169745f74797065223a224167656e742052656365697074222c227681526630b63ab2911d1160c91b60208201526027016112cc91611b60565b62089f4b60ea1b81526003017f7b2274726169745f74797065223a22436f6e7472616374222c2276616c7565228152611d1160f11b602082015260220161131291611b60565b61227d60f01b8152600201615d7d60f01b815260020103828101825261133890826116cb565b61134190612071565b6040517f646174613a6170706c69636174696f6e2f6a736f6e3b6261736536342c000000602082015291908290603d820161137b91611b60565b03908101825261138b90826116cb565b604051610611819282610872565b6113a1611b1a565b93610952565b6109436113b2611ad5565b9461093d565b34610162576000366003190112610162576005546040516001600160a01b039091168152602090f35b34610162576040366003190112610162576114066113fd61014c565b602435906118f3565b005b34610162576000366003190112610162576006546040516001600160a01b039091168152602090f35b91909160c08060e083019460018060a01b0380825116855260208201511660208501526114666040820151604086019061041f565b606081015160608501526080810151608085015260a081015160a085015201511515910152565b3461016257602036600319011261016257604060c06114aa61014c565b82516114b581611672565b600092818480935282602082015282868201528260608201528260808201528260a0820152015260018060a01b031681526002602052205480156115195761150d6108ec610611926000526001602052604060002090565b60405191829182611431565b606460405162461bcd60e51b815260206004820152602060248201527f4e6f20636572746966696361746520666f72207468697320636f6e74726163746044820152fd5b1561156457565b60405162461bcd60e51b815260206004820152601960248201527f4f6e6c7920536f6d6e696157617463682063616e206d696e74000000000000006044820152606490fd5b156115b057565b60405162461bcd60e51b81526020600482015260136024820152724e65656420332b20736166652061756469747360681b6044820152606490fd5b156115f257565b60405162461bcd60e51b815260206004820152601a60248201527f436572746966696361746520616c7265616479206578697374730000000000006044820152606490fd5b634e487b7160e01b600052601160045260246000fd5b600019811461020b5760010190565b634e487b7160e01b600052604160045260246000fd5b60e0810190811067ffffffffffffffff82111761168e57604052565b61165c565b6040810190811067ffffffffffffffff82111761168e57604052565b6060810190811067ffffffffffffffff82111761168e57604052565b90601f8019910116810190811067ffffffffffffffff82111761168e57604052565b604051906116fa82611672565b565b60038210156104095752565b90600381101561040957815460ff60a01b191660a09190911b60ff60a01b16179055565b815181546001600160a01b03199081166001600160a01b0392831617835560208401516001840180549190931691161781559160408101519260038410156104095760c06005926117836116fa966117a894611708565b606081015160028601556080810151600386015560a081015160048601550151151590565b91019060ff801983541691151516179055565b80546801000000000000000081101561168e576117dd9160018201815561025a565b819291549060031b91821b91600019901b1916179055565b6020909392919361180a81604081019661041f565b0152565b1561181557565b60405162461bcd60e51b815260206004820152601c60248201527f4f6e6c7920536f6d6e696157617463682063616e2075706772616465000000006044820152606490fd5b1561186157565b60405162461bcd60e51b81526020600482015260156024820152744e6f2063657274696669636174652065786973747360581b6044820152606490fd5b156118a557565b60405162461bcd60e51b815260206004820152601660248201527510d95c9d1a599a58d85d19481a5cc81c995d9bdad95960521b6044820152606490fd5b6020810192916116fa919061041f565b6005546001600160a01b039190821633036119a5576001600160a01b03811660009081526002602052604090205491821561199f5761193c836000526001602052604060002090565b91600583019261194d845460ff1690565b61199757600486916119877f1adbf4393900ce3a2332405b86649270c35d1316887336d83190dcbae6a423b996600160ff19825416179055565b01556040519485521692602090a3565b505050505050565b50505050565b60405162461bcd60e51b815260206004820152601b60248201527f4f6e6c7920536f6d6e696157617463682063616e207265766f6b6500000000006044820152606490fd5b156119f157565b60405162461bcd60e51b8152602060048201526014602482015273151bdad95b88191bd95cc81b9bdd08195e1a5cdd60621b6044820152606490fd5b90604051611a3a81611672565b60c060ff60058395611a6d8360018060a01b038084541688526001840154908116602089015260a01c16604087016116fc565b6002810154606086015260038101546080860152600481015460a08601520154161515910152565b67ffffffffffffffff811161168e57601f01601f191660200190565b604051906020820182811067ffffffffffffffff82111761168e5760405260008252565b60405190611ae282611693565b600682526541435449564560d01b6020830152565b60405190611b0482611693565b600782526614915593d2d15160ca1b6020830152565b60405190611b2782611693565b600782526604660608c8c70760cb1b6020830152565b60405190611b4a82611693565b600782526608d1918d0d0d0d60ca1b6020830152565b90611b736020928281519485920161084f565b0190565b600f811015611b925760071115611b8d57600090565b600190565b50600290565b60038110156104095760028114611bfe5780611bb56001926103ff565b14611bdc57604051611bc681611693565b600681526542524f4e5a4560d01b602082015290565b604051611be881611693565b600681526529a4a62b22a960d11b602082015290565b50604051611c0b81611693565b600481526311d3d31160e21b602082015290565b60038110156104095760028114611c875780611c3c6001926103ff565b14611c6457604051611c4d81611693565b600781526611a1a21ba3199960c91b602082015290565b604051611c7081611693565b60078152660234330433043360cc1b602082015290565b50604051611c9481611693565b60078152660234646443730360cc1b602082015290565b60405190611cb882611693565b601082526f181899199a1a9b1b9c1cb0b131b232b360811b6020830152565b60405190611ce482611693565b600d825260203681840137565b90611cfb82611a95565b611d0860405191826116cb565b8281528092611d19601f1991611a95565b0190602036910137565b8051156102725760200190565b8051600110156102725760210190565b8051600a101561027257602a0190565b8051600b101561027257602b0190565b8051600c101561027257602c0190565b908151811015610272570160200190565b908160011b918083046002149015171561020b57565b600281901b91906001600160fe1b0381160361020b57565b600201908160021161020b57565b600301908160031161020b57565b906002820180921161020b57565b611de1611cab565b906bffffffffffffffffffffffff199060601b1690611dfe611cd7565b906030611e0a83611d23565b536078611e1683611d30565b536000805b60049081811015611eaf57601481101561027257611e86611e52611e52611eaa94611e608a861a928392600f9485911c168a611d70565b516001600160f81b03191690565b611e7e611e74611e6f88611d81565b611daf565b91891a918b611d70565b531686611d70565b611ea4611e9a611e9584611d81565b611dbd565b91851a9187611d70565b5361164d565b611e1b565b505050509050602e611ec082611d40565b53602e611ecc82611d50565b53602e611ed882611d60565b5390565b90611ee5611cab565b604051909260601b6bffffffffffffffffffffffff1916611f05826116af565b602a825260403660208401376030611f1c83611d23565b536078611f2883611d30565b536000805b60148110611f3d57509193505050565b80611e86611e5285611f76941a600f90611f5f611e52838360041c168d611d70565b611f6e611e74611e6f88611d81565b531689611d70565b611f2d565b8015611ff45760008082805b611fe0575082611f9682611cf1565b935b611fa25750505090565b600a90603092828206840180941161020b57801561020b57600019019260f81b6001600160f81b031916841a611fd88487611d70565b530480611f98565b90611fec600a9161164d565b910480611f87565b5060405161200181611693565b60018152600360fc1b602082015290565b6040519061201f826116af565b604082527f6768696a6b6c6d6e6f707172737475767778797a303132333435363738392b2f6040837f4142434445464748494a4b4c4d4e4f505152535455565758595a61626364656660208201520152565b8051156121445761209c61209761209261208b8451611dcb565b6003900490565b611d97565b611cf1565b906120a5612012565b9080815182019060208501935b8282106120f2575050506003905106806001146120df576002146120d4575090565b603d90600019015390565b50603d9081600019820153600119015390565b9091936004906003809401938451600190603f9082828260121c16880101518553828282600c1c16880101518386015382828260061c16880101516002860153168501015190820153019391906120b2565b5061214d611ab1565b9056fe723d226d6964646c652220666f6e742d66616d696c793d226d6f6e6f73706163a2646970667358221220b474510dfcf3dc20e0647cee43edb51308b8f9a3f0e8c4bb7bd820331699554264736f6c63430008140033",
  "linkReferences": {},
  "deployedLinkReferences": {}
}